:100000000C9464000C948C000C948C000C948C0068
:100010000C948C000C948C000C948B030C948C002E
:100020000C948C000C948C000C948C000C948C0020
:100030000C948C000C948C000C948C000C948C0010
:100040000C94C4060C948C000C9484080C94B60890
:100050000C948C000C948C000C948C000C948C00F0
:100060000C948C000C948C0000000008000201002D
:100070000003040700000000000000000102040863
:100080001020408001020408102001020408102002
:10009000040404040404040402020202020203032E
:1000A00003030303000000002300260029000000D2
:1000B0000000250028002B0000000000240027007D
:1000C0002A009F03E608460411241FBECFEFD8E0A4
:1000D000DEBFCDBF11E0A0E0B1E0EAEFF9E102C080
:1000E00005900D92AE31B107D9F722E0AEE1B1E053
:1000F00001C01D92A230B207E1F710E0C6ECD0E0DB
:1001000004C02297FE010E94BE0BC23CD107C9F772
:100110000E942A090C94F00C0C9400004F925F92FC
:100120006F927F928F929F92AF92BF92CF92DF9207
:10013000EF92FF920F931F93CF93DF93EC018D8982
:100140009E89892B09F440C08B8D9C8D2DA53EA5E1
:10015000821793070CF0D7C02F89388D49A55AA56F
:10016000241735073CF42F5F3F4F388F2F8B00E06B
:1001700010E010C0298D3A8D4BA55CA524173507DA
:100180002CF42F5F3F4F3A8F298FF1CF01969C8F30
:100190008B8FEDCF4B8D698D8F890E947A069B01E5
:1001A000AC01B801CE010E9415060F5F1F4F04304D
:1001B000110581F7CE010E94F90462E070E080E051
:1001C00090E00E943107C0CF61E08CE00E942508DA
:1001D00000E010E0A12CB12C2801662457FC6094AB
:1001E000762CC301B2010E94780A6B017C012DA11B
:1001F0003EA14FA158A50E94040B0E944A0A862ED8
:1002000029A13AA14BA15CA1C701B6010E94040B30
:100210000E944A0A962E2D8D3E8D4F8D58A1C70102
:10022000B6010E94040B0E944A0A862F482D692DB0
:100230000E947A069B01AC01B501CE010E94150611
:100240002FEFA21AB20A34E0A316B10451F6CE0180
:100250000E94F90462E070E080E090E00E943107C3
:100260000F5F1F4F011581E0180709F0B3CF20E0A1
:1002700030E04FE753E46D8D7E8D8F8D98A10E9405
:10028000040B0E94450A788F6F8B20E030E04FE727
:1002900053E469A17AA18BA19CA10E94040B0E9446
:1002A000450A7A8F698F20E030E04FE753E46DA173
:1002B0007EA18FA198A50E94040B0E94450A7C8F05
:1002C0006B8F81E090E09E8B8D8B64EF71E080E01E
:1002D00090E00E9431078EE00E94A6070EE014E035
:1002E0009801281B390BC901833C914034F08EE002
:1002F0000E94A607081B190B02C002EC11E0109324
:100300000B0100930A0188E290E098AB8FA7DF9180
:10031000CF911F910F91FF90EF90DF90CF90BF9002
:10032000AF909F908F907F906F905F904F900895C7
:100330000F931F93CF93DF93EC0118AA1FA61E8A79
:100340001D8A00E010E020E030E0A901B801CE01F4
:100350000E9415060F5F1F4F04301105A1F7CE0153
:100360000E94F90482EC91E090930B0180930A01C2
:1003700062E070E080E090E00E94310760E08CE095
:10038000DF91CF911F910F910C94250862E08EE0D0
:100390000E94EC0762E081E10E94EC0761E08CE0E2
:1003A0000E94EC0760E08BE00E94EC0760E081E1D6
:1003B0000E94250860E08CE00E9425086FEF87E22C
:1003C00091E00E94830687E291E00E94750487E233
:1003D00091E00E94F90461E070E080E090E00E940A
:1003E000310761E08BE00C94250880910601909123
:1003F000070190930901809308018EE00E94A607EF
:100400002FEF33E0281B390B3093070120930601AF
:100410008091250190912601892BF1F42E353140F0
:1004200094F480910801909109018F3591405CF01E
:1004300081E090E090932601809325019093240120
:100440008093230104C01092240110922301109282
:1004500022011092210121C080910A0190910B018B
:100460008217930794F4209108013091090128170D
:1004700039075CF4109226011092250181E090E08A
:10048000909322018093210104C0109222011092C6
:100490002101109224011092230181E10E945B0846
:1004A0009093200180931F010895209123013091A2
:1004B000240195E0220F331F9A95E1F780912501E1
:1004C0009091260136E0880F991F3A95E1F7282B85
:1004D000809121019091220144E0880F991F4A9553
:1004E000E1F7282B80911F019091200153E0880FA4
:1004F000991F5A95E1F7282B80913C0190913D017D
:10050000880F991F880F991F282B41E050E06091B8
:10051000560170915701672B11F440E050E0440FF1
:10052000551F422B40931E010895CF93DF932091D6
:1005300025013091260180912301909124012115FC
:10054000310549F40097B1F5409121015091220104
:10055000452B79F02FC00097A9F4409121015091CB
:100560002201452B79F440911F0150912001452B28
:1005700049F440913C0150913D01452B09F4A8C03C
:10058000232BC1F020911F0130912001232B11F466
:10059000892B71F160E08BE00E94250861E070E03A
:1005A00080E090E00E94310787E291E0DF91CF91F7
:1005B0000C948E008091210190912201892B09F4E5
:1005C00087C080913C0190913D01892B09F480C046
:1005D00087E291E00E94980161E070E080E090E0A5
:1005E0000E94310761E08BE0DF91CF910C942508E8
:1005F00080913C0190913D01892B09F469C0809163
:10060000560190915701009709F05DC08091420119
:10061000909143011816190664F4029790934301D0
:1006200080934201019651F51092430110924201CC
:1006300025C080914001909141011816190664F47B
:100640000497909341018093400197FF17C0109247
:1006500041011092400112C080913E0190913F01F2
:10066000181619065CF4089790933F0180933E0199
:1006700097FF04C010923F0110923E0180913E010D
:1006800090913F01892B21F487E291E00E9498012B
:10069000C0E0D0E0409142016091400180913E0174
:1006A0000E947A069B01AC01BE0187E291E00E94A4
:1006B00015062196C430D10569F787E291E0DF91F4
:1006C000CF910C94F90401979093570180935601B0
:1006D000DF91CF9108950E94F5010E9455020E947A
:1006E000950214BEE0E6F0E088E1808385E4808333
:1006F000A89583B7817F846083BFF89483B78160B6
:1007000083BF80E685BF80E485BF7894889583B7F2
:100710008E7F83BF08951F920F920FB60F92112400
:100720008F9388E10FB6F894809360001092600078
:100730000FBE8F910F900FBE0F901F901895CF9204
:10074000DF92EF92FF920F931F93CF93DF93CDB77A
:10075000DEB765970FB6F894DEBF0FBECDBF87E258
:1007600091E00E944A0474E4C72E71E0D72E80E025
:1007700090E0A0E8BFE3F60180839183A283B38376
:10078000E8E4EE2EE1E0FE2E83E393E3A3E3BFE390
:10079000F70180839183A283B3830CE411E08DEC95
:1007A0009CECACECBEE3F80180839183A283B3831D
:1007B0008CE390E0909357018093560122E530E05E
:1007C0004BE064E070E0CE0101960E94ED0585E10A
:1007D000FE013196A7E2B1E001900D928A95E1F712
:1007E000CE0101960E94610410923D0110923C01DD
:1007F0001092430110924201109241011092400167
:1008000010923F0110923E0120E030E04FE753E4A8
:10081000F60160817181828193810E94040B0E94A4
:10082000450A709351016093500120E030E04FE79A
:1008300053E4F70160817181828193810E94040BEE
:100840000E94450A709353016093520120E030E00A
:100850004FE753E4F80160817181828193810E94A6
:10086000040B0E94450A70935501609354016596EC
:100870000FB6F894DEBF0FBECDBFDF91CF911F91B1
:100880000F91FF90EF90DF90CF90089587E291E075
:100890000C946104FC0181E0808311821382128236
:1008A000158214829FEF96831782118610868287A5
:1008B000138692E09487858716861786108A118A98
:1008C0000895CF93DF93EC0188859985009711F007
:1008D0000E945A0C8E8187FD05C060E0DF91CF91A8
:1008E0000C94EC07DF91CF910895CF93DF93EC0147
:1008F0008E8187FD07C061E00E94EC0760E08E8179
:100900000E94250881E08983DF91CF910895EF92BD
:10091000FF920F931F93CF93DF93EC017B018885A8
:100920009985009711F00E945A0C9D858A8598132D
:1009300003C083E090E002C084E090E08E9D8001DF
:100940008F9D100D9E9D100D11241D830C83C801D9
:100950000E94C20B99878887009741F0A80160E048
:1009600070E00E94E90CFB82EA8204C01D821C82B6
:100970001B821A82DF91CF911F910F91FF90EF9010
:100980000895FC0121E095858285981320E0CB0134
:1009900036E0969587953A95E1F7482F437045875D
:1009A000CB0154E0969587955A95E1F7382F33702F
:1009B0003287CB0196958795969587958370838727
:1009C000862F8370848781E06F3F710511F008F0F6
:1009D00080E0808380859185892B51F091E04313DD
:1009E00090E0921729F062817381CF010C94870403
:1009F0000895CF92DF92EF92FF920F931F93CF93C0
:100A0000DF93CDB7DEB729970FB6F894DEBF0FBEE0
:100A1000CDBF8C01DC0118968D919C911997892B83
:100A200009F49AC00E940E07F801C684D784E088B2
:100A3000F1886C197D098E099F0962337105810562
:100A4000910580F3F894848195819A838983A085A8
:100A5000B1857D01EFEFEE1AFE0A8C918987D801EE
:100A60009C9152960D90BC91A02DF80184899923F8
:100A700009F42EC09C91982B98879C91809589238E
:100A80008F838F818E8388E08D8358856F81498520
:100A90003D812E8189819A81F7015C9347FD252F45
:100AA0003A952C93262F39F0441F00C000006C9318
:100AB000000000C0F2CF38E041916C930000019734
:100AC00061F7F801B38BA28B49873D832E8338C031
:100AD0009C91982B98879C91809589238F838F81F7
:100AE0008C8388E08B8358856F8149853B812C817D
:100AF00089819A81F7015C9347FD252F00C000C0D2
:100B00002C9300C000C000C000C000C06C93000067
:100B1000262F3A9541F0441F000000C000C000C0DD
:100B200000C000C0E8CF38E0419100C06C9300C025
:100B3000019709F7F801B38BA28B49873B832C837C
:100B40009A83898378940E940E07D8011E966D932C
:100B50007D938D939C93519729960FB6F894DEBFA1
:100B60000FBECDBFDF91CF911F910F91FF90EF90FE
:100B7000DF90CF9008951F93CF93DF93EC01162F52
:100B80008981882331F08E8187FD03C060E00E9457
:100B9000EC071E838981882341F061E0812F0E9448
:100BA000EC0760E0812F0E942508812F90E0FC0176
:100BB000E057FF4FE491F0E0EE0FFF1FE255FF4FCB
:100BC000259134913B8B2A8BFC01E458FF4F849193
:100BD0008C8BDF91CF911F910895EF92FF920F932D
:100BE0001F93CF93DF931F92CDB7DEB77C018B01AC
:100BF000FC01118217821186108616861786108ACC
:100C0000118AB90149830E94C104B801C7010E9439
:100C100087044981642FC7010F90DF91CF911F9105
:100C20000F91FF90EF900C94BB05CF92DF92EF9263
:100C3000FF920F931F93CF93DF93FC0182819381E7
:100C40006817790708F04DC0CA01AA27BB27182FDB
:100C5000C32ED42EE52EFF24DC2DC22F07810023C6
:100C600061F0809FC0011124192FC09E60011124E2
:100C7000DD2D209FC0011124C92FF5848285A08518
:100C8000B185F81208C0CB01880F991F860F971FF6
:100C90008A0F9B1F17C0CB01880F991F880F991FC0
:100CA0008A0F9B1F452F552766277727DC01AF0D3D
:100CB000B11D002329F0409F90011124232F01C072
:100CC000242F2C932285DC01A20FB11D1C932385B8
:100CD000DC01A20FB11DDC932485FC01E20FF11DA4
:100CE000C083DF91CF911F910F91FF90EF90DF9024
:100CF000CF900895962F50E060E070E0592B682B5C
:100D0000CB01BA010895FF920F931F93CF93DF9306
:100D1000EC01FF24F394F60E2F81F21679F1088589
:100D200019852150B9F06F3F59F430E040E050E0B0
:100D30006FEF7FEF80E090E00E949D0BB9010CC047
:100D40008F2D90E0982F88270197622F70E00E94E6
:100D5000670B02C060E070E0F8018C819D81AF01FB
:100D6000401B510B4817590740F44081469FC00172
:100D7000479F900D11249193F0CFFF82DF91CF9187
:100D80001F910F91FF9008951F920F920FB60F922F
:100D900011242F933F938F939F93AF93BF93809191
:100DA000590190915A01A0915B01B0915C01309181
:100DB000580123E0230F2D3720F40196A11DB11D0A
:100DC00005C026E8230F0296A11DB11D20935801EE
:100DD0008093590190935A01A0935B01B0935C01F9
:100DE00080915D0190915E01A0915F01B0916001E1
:100DF0000196A11DB11D80935D0190935E01A093AA
:100E00005F01B0936001BF91AF919F918F913F912E
:100E10002F910F900FBE0F901F9018953FB7F89429
:100E200080915D0190915E01A0915F01B0916001A0
:100E300026B5A89B05C02F3F19F00196A11DB11D35
:100E40003FBF6627782F892F9A2F620F711D811D52
:100E5000911D42E0660F771F881F991F4A95D1F7B1
:100E600008958F929F92AF92BF92CF92DF92EF92AE
:100E7000FF926B017C010E940E074B015C01C114C3
:100E8000D104E104F104F1F00E9461090E940E070F
:100E9000681979098A099B09683E734081059105A3
:100EA00070F321E0C21AD108E108F10888EE880E3B
:100EB00083E0981EA11CB11CC114D104E104F1040B
:100EC00029F7DDCFFF90EF90DF90CF90BF90AF90EC
:100ED0009F908F900895789484B5826084BD84B586
:100EE000816084BD85B5826085BD85B5816085BD25
:100EF000EEE6F0E0808181608083E1E8F0E010823E
:100F0000808182608083808181608083E0E8F0E07E
:100F1000808181608083E1EBF0E080818460808368
:100F2000E0EBF0E0808181608083EAE7F0E080819F
:100F300084608083808182608083808181608083FF
:100F40008081806880831092C10008958E3008F0FF
:100F50008E50877020910C0190E4299F90011124FC
:100F6000822B80937C0080917A00806480937A0049
:100F700080917A0086FDFCCF8091780020917900E5
:100F800090E0922B0895833081F028F4813099F01D
:100F90008230A1F008958730A9F08830B9F084300C
:100FA000D1F4809180008F7D03C0809180008F7785
:100FB00080938000089584B58F7702C084B58F7DBB
:100FC00084BD08958091B0008F7703C08091B000F8
:100FD0008F7D8093B0000895CF93DF9390E0FC0164
:100FE000E458FF4F2491FC01E057FF4F8491882380
:100FF00049F190E0880F991FFC01E854FF4FA5913B
:10100000B49182559F4FFC01C591D4919FB7611156
:1010100008C0F8948C91209582238C938881822338
:101020000AC0623051F4F8948C91322F30958323AA
:101030008C938881822B888304C0F8948C91822BB6
:101040008C939FBFDF91CF9108950F931F93CF9300
:10105000DF931F92CDB7DEB7282F30E0F901E859B2
:10106000FF4F8491F901E458FF4F1491F901E057C3
:10107000FF4F04910023C9F0882321F069830E9467
:10108000C3076981E02FF0E0EE0FFF1FE255FF4F2D
:10109000A591B4919FB7F8948C91611103C01095FC
:1010A000812301C0812B8C939FBF0F90DF91CF9143
:1010B0001F910F910895CF93DF93282F30E0F9010E
:1010C000E859FF4F8491F901E458FF4FD491F90199
:1010D000E057FF4FC491CC2391F081110E94C307C8
:1010E000EC2FF0E0EE0FFF1FEC55FF4FA591B491F0
:1010F0002C912D2381E090E021F480E002C080E07B
:1011000090E0DF91CF9108951F920F920FB60F924A
:1011100011242F938F939F93EF93FF93E09171018D
:10112000F09172018081E0917701F091780182FD68
:1011300012C0908180917A018F5F8F7320917B0123
:10114000821751F0E0917A01F0E0EF59FE4F958F50
:1011500080937A0101C08081FF91EF919F918F91DF
:101160002F910F900FBE0F901F9018951F920F9206
:101170000FB60F9211242F933F934F935F936F936A
:101180007F938F939F93AF93BF93EF93FF9381E6EA
:1011900091E00E949D09FF91EF91BF91AF919F91C6
:1011A0008F917F916F915F914F913F912F910F9010
:1011B0000FBE0F901F90189581E691E00E94620982
:1011C00021E0892B09F420E0822F08951092640118
:1011D0001092630188EE93E0A0E0B0E08093650197
:1011E00090936601A0936701B093680181E191E05B
:1011F000909362018093610185EC90E090936E0181
:1012000080936D0184EC90E09093700180936F0166
:1012100080EC90E0909372018093710181EC90E0FA
:10122000909374018093730182EC90E09093760127
:101230008093750186EC90E090937801809377011C
:1012400010927A0110927B0110927C0110927D0124
:10125000089508950E946B070E9429090E94C60103
:10126000CFE8D9E00E946B032097E1F30E948F0939
:10127000F9CFCF92DF92EF92FF920F931F93CF930C
:10128000DF937C016A01EB0100E010E00C151D0505
:1012900071F06991D701ED91FC910190F081E02D01
:1012A000C7010995892B19F00F5F1F4FEFCFC801B8
:1012B000DF91CF911F910F91FF90EF90DF90CF9032
:1012C00008950895FC01818D228D90E0805C9F4FF0
:1012D000821B91098F7399270895FC01918D828D4E
:1012E000981731F0828DE80FF11D858D90E00895FB
:1012F0008FEF9FEF0895FC01918D828D981761F01B
:10130000828DDF01A80FB11D5D968C91928D9F5F3C
:101310009F73928F90E008958FEF9FEF08958CED6B
:1013200098E0892B49F080E090E0892B29F00E9419
:10133000DC0881110C9400000895FC01848DDF010C
:10134000A80FB11DA35ABF4F2C91848D90E0019638
:101350008F739927848FA689B7892C93A089B18927
:101360008C9180648C93938D848D981306C0028831
:10137000F389E02D80818F7D80830895CF93DF9363
:10138000EC01888D8823C9F0EA89FB89808185FD7D
:1013900005C0A889B9898C9186FD0FC00FB607FCDE
:1013A000F5CF808185FFF2CFA889B9898C9185FF1F
:1013B000EDCFCE010E949D09E7CFDF91CF91089537
:1013C000CF92DF92FF920F931F93CF93DF931F92E1
:1013D000CDB7DEB76C0181E0D60158968C93589753
:1013E0005B969C915B975C968C915C97981307C079
:1013F0005096ED91FC915197808185FD2EC0F601AC
:10140000038D10E00F5F1F4F0F731127F02EF601B1
:10141000848DF81211C00FB607FCF9CFD601509693
:10142000ED91FC915197808185FFF1CFC6016983D1
:101430000E949D096981EBCF838DE80FF11DE35A6E
:10144000FF4F6083D6015B960C935B975296ED91AC
:10145000FC915397808180620CC0D6015696ED9125
:10146000FC91579760835096ED91FC915197808144
:101470008064808381E090E00F90DF91CF911F9195
:101480000F91FF90DF90CF90089504D06894B11130
:10149000B5C0089598D088F09F5790F0B92F99273C
:1014A000B751A0F0D1F0660F771F881F991F1AF06F
:1014B000BA95C9F712C0B13081F09FD0B1E008955C
:1014C0009CC0672F782F8827B85F39F0B93FCCF3DD
:1014D000869577956795B395D9F73EF49095809565
:1014E000709561957F4F8F4F9F4F0895E89409C085
:1014F00097FB3EF490958095709561957F4F8F4F47
:101500009F4F9923A9F0F92F96E9BB279395F6955C
:10151000879577956795B795F111F8CFFAF4BB0FDA
:1015200011F460FF1BC06F5F7F4F8F4F9F4F16C03E
:10153000882311F096E911C0772321F09EE8872FC8
:10154000762F05C0662371F096E8862F70E060E084
:101550002AF09A95660F771F881FDAF7880F9695FD
:10156000879597F9089597F99F6780E870E060E0A4
:1015700008959FEF80EC089500240A94161617062C
:1015800018060906089500240A9412161306140674
:1015900005060895092E0394000C11F4882352F0D7
:1015A000BB0F40F4BF2B11F460FF04C06F5F7F4F8F
:1015B0008F4F9F4F089557FD9058440F551F59F076
:1015C0005F3F71F04795880F97FB991F61F09F3F30
:1015D00079F087950895121613061406551FF2CF59
:1015E0004695F1DF08C0161617061806991FF1CFA9
:1015F00086957105610508940895E894BB276627D0
:101600007727CB0197F908950BD0C4CFB5DF28F029
:10161000BADF18F0952309F0A6CFABCF1124EECF97
:10162000CADFA0F3959FD1F3950F50E0551F629F3D
:10163000F001729FBB27F00DB11D639FAA27F00D2B
:10164000B11DAA1F649F6627B00DA11D661F829F52
:101650002227B00DA11D621F739FB00DA11D621F37
:10166000839FA00D611D221F749F3327A00D611D54
:10167000231F849F600D211D822F762F6A2F112436
:101680009F5750408AF0E1F088234AF0EE0FFF1F89
:10169000BB1F661F771F881F91505040A9F79E3FC0
:1016A000510570F060CFAACF5F3FECF3983EDCF3BA
:1016B000869577956795B795F795E7959F5FC1F7FD
:1016C000FE2B880F911D9695879597F90895AA1B73
:1016D000BB1B51E107C0AA1FBB1FA617B70710F01D
:1016E000A61BB70B881F991F5A95A9F7809590954F
:1016F000BC01CD010895A1E21A2EAA1BBB1BFD015E
:101700000DC0AA1FBB1FEE1FFF1FA217B307E407E0
:10171000F50720F0A21BB30BE40BF50B661F771F38
:10172000881F991F1A9469F7609570958095909518
:101730009B01AC01BD01CF010895052E97FB1EF45E
:1017400000940E94B40B57FD07D00E947B0B07FC4E
:1017500003D04EF40C94B40B5095409530952195E0
:101760003F4F4F4F5F4F08959095809570956195CD
:101770007F4F8F4F9F4F0895EE0FFF1F0590F491FD
:10178000E02D0994CF93DF938230910510F482E02D
:1017900090E0E0910002F091010220E030E0A0E052
:1017A000B0E0309739F14081518148175907B8F0BE
:1017B0004817590771F482819381109729F0139685
:1017C0009C938E9312972CC09093010280930002F9
:1017D00027C02115310531F04217530718F0A90130
:1017E000DB0101C0EF019A01BD01DF010280F3813D
:1017F000E02DD7CF21153105F9F0281B390B243006
:10180000310580F48A819B816115710521F0FB010E
:101810009383828304C09093010280930002FE01AF
:10182000329644C0FE01E20FF31F81939193225040
:101830003109398328833AC02091FE013091FF019C
:10184000232B41F420910201309103013093FF01D9
:101850002093FE01209100013091010121153105F5
:1018600041F42DB73EB74091040150910501241B6E
:10187000350BE091FE01F091FF01E217F307A0F4B0
:101880002E1B3F0B2817390778F0AC014E5F5F4FD6
:101890002417350748F04E0F5F1F5093FF01409308
:1018A000FE018193919302C0E0E0F0E0CF01DF916F
:1018B000CF910895CF93DF93009709F487C0FC017F
:1018C000329713821282C0910002D09101022097B8
:1018D00081F420813181280F391F8091FE01909180
:1018E000FF018217930779F5F093FF01E093FE0162
:1018F0006DC0DE0120E030E0AE17BF0750F4129655
:101900004D915C9113979D014115510509F1DA0143
:10191000F3CFB383A28340815181840F951F8A172F
:101920009B0771F48D919C911197840F951F0296DE
:101930009183808312968D919C91139793838283D8
:101940002115310529F4F0930102E09300023EC015
:10195000D9011396FC93EE9312974D915D91A40FCC
:10196000B51FEA17FB0779F480819181840F951FD9
:101970000296D90111969C938E938281938113963E
:101980009C938E931297E0E0F0E08A819B81009710
:1019900019F0FE01EC01F9CFCE01029628813981C0
:1019A000820F931F2091FE013091FF012817390704
:1019B00069F4309729F4109201021092000202C0DB
:1019C00013821282D093FF01C093FE01DF91CF9169
:1019D0000895DC0101C06D9341505040E0F7089537
:1019E00010E0C6ECD0E004C0FE010E94BE0B2296BF
:0A19F000C83CD107C9F7F894FFCFF7
:1019FA00000002028000FF03FF03C2010100000091
:0E1A0A0000E009390962097B096D09BE090077
:00000001FF
