:100000000C9464000C948C000C948C000C948C0068
:100010000C948C000C948C000C9455040C948C0063
:100020000C948C000C948C000C948C000C948C0020
:100030000C948C000C948C000C948C000C948C0010
:100040000C94D9070C948C000C94EA0A0C941C0BA9
:100050000C948C000C948C000C948C000C948C00F0
:100060000C948C000C948C0000000008000201002D
:100070000003040700000000000000000102040863
:100080001020408001020408102001020408102002
:10009000040404040404040402020202020203032E
:1000A00003030303000000002300260029000000D2
:1000B0000000250028002B0000000000240027007D
:1000C0002A0069044C0B100511241FBECFEFD8E0A5
:1000D000DEBFCDBF11E0A0E0B1E0E2EDFEE102C085
:1000E00005900D92A035B107D9F722E0A0E5B1E067
:1000F00001C01D92A337B207E1F710E0C6ECD0E0D3
:1001000004C02297FE010E942A0EC23CD107C9F703
:100110000E94900B0C945C0F0C9400004F925F9225
:100120006F927F928F929F92AF92BF92CF92DF9207
:10013000EF92FF920F931F93CF93DF93EC018D8982
:100140009E89892B09F440C08B8D9C8D2DA53EA5E1
:10015000821793070CF0D7C02F89388D49A55AA56F
:10016000241735073CF42F5F3F4F388F2F8B00E06B
:1001700010E010C0298D3A8D4BA55CA524173507DA
:100180002CF42F5F3F4F3A8F298FF1CF01969C8F30
:100190008B8FEDCF4B8D698D8F890E9444079B011A
:1001A000AC01B801CE010E94DF060F5F1F4F043083
:1001B000110581F7CE010E94C30562E070E080E086
:1001C00090E00E945208C0CF61E08CE00E94460996
:1001D00000E010E0A12CB12C2801662457FC6094AB
:1001E000762CC301B2010E94E40C6B017C012DA1AD
:1001F0003EA14FA158A50E94700D0E94B60C862EFC
:1002000029A13AA14BA15CA1C701B6010E94700DC2
:100210000E94B60C962E2D8D3E8D4F8D58A1C70194
:10022000B6010E94700D0E94B60C862F482D692DD4
:100230000E9444079B01AC01B501CE010E94DF067C
:100240002FEFA21AB20A34E0A316B10451F6CE0180
:100250000E94C30562E070E080E090E00E945208D6
:100260000F5F1F4F011581E0180709F0B3CF20E0A1
:1002700030E04FE753E46D8D7E8D8F8D98A10E9405
:10028000700D0E94B10C788F6F8B20E030E04FE74B
:1002900053E469A17AA18BA19CA10E94700D0E94D8
:1002A000B10C7A8F698F20E030E04FE753E46DA105
:1002B0007EA18FA198A50E94700D0E94B10C7C8F29
:1002C0006B8F81E090E09E8B8D8B64EF71E080E01E
:1002D00090E00E9452088EE00E94C7080EE014E0F1
:1002E0009801281B390BC901833C914034F08EE002
:1002F0000E94C708081B190B02C002EC11E0109302
:100300000B0100930A0188E290E098AB8FA7DF9180
:10031000CF911F910F91FF90EF90DF90CF90BF9002
:10032000AF909F908F907F906F905F904F900895C7
:100330000F931F93CF93DF93EC0118AA1FA61E8A79
:100340001D8A00E010E020E030E0A901B801CE01F4
:100350000E94DF060F5F1F4F04301105A1F7CE0189
:100360000E94C30582EC91E090930B0180930A01F7
:1003700062E070E080E090E00E94520860E08CE073
:10038000DF91CF911F910F910C94460940ED57E0FA
:1003900060E070E082E991E00E94B90720E032EC71
:1003A00041E050E062ED71E082E991E00E94CC070B
:1003B00082E991E00E94B6076DE071E08091C3018F
:1003C0009091C4010E94DD0B6AE070E080E090E053
:1003D0000E94520840E060E082E991E00E94D80764
:1003E00026E040E052EC61E070E082ED91E00E9496
:1003F000880A62E08EE00E940D0960E082E00E94BF
:100400000D0961E08CE00E940D0962E08BE00E9422
:100410000D0961E08DE00E940D0960E08CE00E9412
:1004200046096FEF89E591E00E944D0789E591E06B
:100430000E943F0589E591E00C94C3058091060177
:100440009091070190930901809308018EE00E942A
:10045000C7082FEF33E0281B390B30930701209397
:1004600006018091570190915801892BF1F42E35A6
:10047000314094F480910801909109018F359140A9
:100480005CF081E090E09093580180935701909345
:1004900056018093550104C01092560110925501E7
:1004A000109254011092530121C080910A01909141
:1004B0000B018217930794F42091080130910901F0
:1004C000281739075CF4109258011092570181E007
:1004D00090E0909354018093530104C01092540112
:1004E00010925301109256011092550181E10E9421
:1004F0007C099093520180935101089520915501F8
:100500003091560195E0220F331F9A95E1F78091C3
:1005100057019091580136E0880F991F3A95E1F7FD
:10052000282B809153019091540144E0880F991F2A
:100530004A95E1F7282B809151019091520153E0A7
:10054000880F991F5A95E1F7282B80916E019091A1
:100550006F01880F991F880F991F282B41E050E0E9
:100560006091880170918901672B11F440E050E09F
:10057000440F551F422B409350010895609106018E
:10058000709107014AE050E082ED91E00E94830CF7
:1005900069E082ED91E00E94DF0B609150017727C6
:1005A00067FD709542E050E082ED91E00E94830C7F
:1005B00069E082ED91E00E94DF0B60915101709142
:1005C00052014AE050E082ED91E00C948B0CCF9305
:1005D000DF932091570130915801809155019091FE
:1005E00056012115310549F4009761F540915301F9
:1005F00050915401452B79F025C00097A9F4409102
:10060000530150915401452B79F44091510150917F
:100610005201452B49F440916E0150916F01452BD9
:1006200009F494C0232B71F02091510130915201B3
:10063000232B11F4892BD1F089E591E0DF91CF9143
:100640000C948E008091530190915401892B09F4F0
:100650007DC080916E0190916F01892B09F476C065
:1006600089E591E0DF91CF910C94980180916E0122
:1006700090916F01892B09F469C080918801909154
:100680008901009709F05DC0809174019091750116
:100690001816190664F402979093750180937401FB
:1006A000019651F5109275011092740125C0809148
:1006B0007201909173011816190664F404979093CF
:1006C00073018093720197FF17C01092730110920B
:1006D000720112C080917001909171011816190673
:1006E0005CF40897909371018093700197FF04C0A8
:1006F00010927101109270018091700190917101BE
:10070000892B21F489E591E00E949801C0E0D0E0B6
:100710004091740160917201809170010E944407C0
:100720009B01AC01BE0189E591E00E94DF062196A4
:10073000C430D10569F789E591E0DF91CF910C9440
:10074000C30501979093890180938801DF91CF9130
:100750000895CF92DF92EF92FF920F931F930E9422
:100760002308672B682B692B41F40E942308623011
:1007700071058105910508F46AC00E942308609301
:100780008A0170938B0180938C0190938D0100916D
:100790008E0110918F01209190013091910160178D
:1007A00071078207930740F460938E0170938F0165
:1007B000809390019093910100918E0110918F018F
:1007C00020919001309191016B017C01C01AD10AF6
:1007D000E20AF30A970186010A3F11052105310556
:1007E000B0F160938E0170938F018093900190938C
:1007F000910182E991E00E94B6076FE171E080917A
:10080000C3019091C4010E94DD0B67E271E0809109
:10081000C3019091C4010E94DD0B0E942308AB012B
:10082000BC012AE030E08091C3019091C4010E9494
:10083000A30C69E271E08091C3019091C4010E9410
:10084000DD0B65E070E080E090E00E9452080E94BD
:100850001E020E947E020E94BE0262E070E080E002
:1008600090E00E9452080E94E70214BE88E1809343
:10087000600085E480936000A89583B7817F8460E1
:1008800083BFF89483B7816083BF80E685BF80E42F
:1008900085BF7894889583B78E7F83BF1F910F9112
:1008A000FF90EF90DF90CF9008951F920F920FB6B8
:1008B0000F9211248F9388E10FB6F8948093600013
:1008C000109260000FBE8F910F900FBE0F901F907F
:1008D0001895CF92DF92EF92FF920F931F93CF93D1
:1008E000DF93CDB7DEB765970FB6F894DEBF0FBEC6
:1008F000CDBF89E591E00E94140576E7C72E71E02F
:10090000D72E80E090E0A0E8BFE3F60180839183DA
:10091000A283B383EAE7EE2EE1E0FE2E83E393E3C6
:10092000A3E3BFE3F70180839183A283B3830EE740
:1009300011E08DEC9CECACECBEE3F801808391837C
:10094000A283B3838CE390E0909389018093880124
:1009500022E530E04BE064E070E0CE0101960E94B9
:10096000B70685E1FE013196A9E5B1E001900D924F
:100970008A95E1F7CE0101960E942B0510926F0136
:1009800010926E0110927501109274011092730111
:1009900010927201109271011092700120E030E00B
:1009A0004FE753E4F60160817181828193810E9457
:1009B000700D0E94B10C709383016093820120E05E
:1009C00030E04FE753E4F7016081718182819381C8
:1009D0000E94700D0E94B10C709385016093840198
:1009E00020E030E04FE753E4F801608171818281BB
:1009F00093810E94700D0E94B10C709387016093E7
:100A0000860165960FB6F894DEBF0FBECDBFDF91AD
:100A1000CF911F910F91FF90EF90DF90CF900895AD
:100A200089E591E00C942B05FC0181E08083118223
:100A300013821282158214829FEF96831782118689
:100A400010868287138692E094878587168617869C
:100A5000108A118A0895CF93DF93EC0188859985D8
:100A6000009711F00E94C60E8E8187FD05C060E0E0
:100A7000DF91CF910C940D09DF91CF910895CF9321
:100A8000DF93EC018E8187FD07C061E00E940D09B4
:100A900060E08E810E94460981E08983DF91CF91D9
:100AA0000895EF92FF920F931F93CF93DF93EC0182
:100AB0007B0188859985009711F00E94C60E9D855F
:100AC0008A85981303C083E090E002C084E090E040
:100AD0008E9D80018F9D100D9E9D100D11241D83F4
:100AE0000C83C8010E942E0E99878887009741F0D9
:100AF000A80160E070E00E94550FFB82EA8204C00A
:100B00001D821C821B821A82DF91CF911F910F914F
:100B1000FF90EF900895FC0121E095858285981360
:100B200020E0CB0136E0969587953A95E1F7482F7E
:100B300043704587CB0154E0969587955A95E1F728
:100B4000382F33703287CB01969587959695879588
:100B500083708387862F8370848781E06F3F710560
:100B600011F008F080E0808380859185892B51F019
:100B700091E0431390E0921729F062817381CF01D5
:100B80000C9451050895CF92DF92EF92FF920F934C
:100B90001F93CF93DF93CDB7DEB729970FB6F894A5
:100BA000DEBF0FBECDBF8C01DC0118968D919C91EC
:100BB0001997892B09F49AC00E942F08F801C6845E
:100BC000D784E088F1886C197D098E099F0962330A
:100BD00071058105910580F3F894848195819A834C
:100BE0008983A085B1857D01EFEFEE1AFE0A8C9115
:100BF0008987D8019C9152960D90BC91A02DF80147
:100C00008489992309F42EC09C91982B98879C91F4
:100C1000809589238F838F818E8388E08D8358858B
:100C20006F8149853D812E8189819A81F7015C938D
:100C300047FD252F3A952C93262F39F0441F00C0ED
:100C400000006C93000000C0F2CF38E041916C933B
:100C50000000019761F7F801B38BA28B49873D83B0
:100C60002E8338C09C91982B98879C9180958923DE
:100C70008F838F818C8388E08B8358856F81498532
:100C80003B812C8189819A81F7015C9347FD252F57
:100C900000C000C02C9300C000C000C000C000C055
:100CA0006C930000262F3A9541F0441F000000C0CD
:100CB00000C000C000C000C0E8CF38E0419100C0D3
:100CC0006C9300C0019709F7F801B38BA28B498799
:100CD0003B832C839A83898378940E942F08D801C0
:100CE0001E966D937D938D939C93519729960FB685
:100CF000F894DEBF0FBECDBFDF91CF911F910F9152
:100D0000FF90EF90DF90CF9008951F93CF93DF93E4
:100D1000EC01162F8981882331F08E8187FD03C075
:100D200060E00E940D091E838981882341F061E003
:100D3000812F0E940D0960E0812F0E944609812FBA
:100D400090E0FC01E057FF4FE491F0E0EE0FFF1F51
:100D5000E255FF4F259134913B8B2A8BFC01E458DF
:100D6000FF4F84918C8BDF91CF911F910895EF926B
:100D7000FF920F931F93CF93DF931F92CDB7DEB7F0
:100D80007C018B01FC011182178211861086168668
:100D90001786108A118AB90149830E948B05B80110
:100DA000C7010E9451054981642FC7010F90DF914F
:100DB000CF911F910F91FF90EF900C948506CF92E9
:100DC000DF92EF92FF920F931F93CF93DF93FC017B
:100DD000828193816817790708F04DC0CA01AA275C
:100DE000BB27182FC32ED42EE52EFF24DC2DC22FB7
:100DF0000781002361F0809FC0011124192FC09E3C
:100E000060011124DD2D209FC0011124C92FF5841C
:100E10008285A085B185F81208C0CB01880F991F83
:100E2000860F971F8A0F9B1F17C0CB01880F991F32
:100E3000880F991F8A0F9B1F452F552766277727F5
:100E4000DC01AF0DB11D002329F0409F900111245A
:100E5000232F01C0242F2C932285DC01A20FB11D6A
:100E60001C932385DC01A20FB11DDC932485FC01BA
:100E7000E20FF11DC083DF91CF911F910F91FF9081
:100E8000EF90DF90CF900895962F50E060E070E0F3
:100E9000592B682BCB01BA010895FF920F931F9332
:100EA000CF93DF93EC01FF24F394F60E2F81F2161B
:100EB00079F1088519852150B9F06F3F59F430E078
:100EC00040E050E06FEF7FEF80E090E00E94090E7D
:100ED000B9010CC08F2D90E0982F88270197622FC1
:100EE00070E00E94D30D02C060E070E0F8018C81D8
:100EF0009D81AF01401B510B4817590740F44081B9
:100F0000469FC001479F900D11249193F0CFFF821F
:100F1000DF91CF911F910F91FF9008950F931F9331
:100F2000CF93DF93EC01662359F00E942308698375
:100F30007A838B839C83DF91CF911F910F910895CA
:100F40000E94230809811A812B813C81601B710B4F
:100F5000820B930B623371058105910530F763E0D5
:100F600070E080E090E00E945208EACF60E00C94CC
:100F70008E07FC0113AA14AA15AA16AA11821282BE
:100F800013821482411551056105710521F0CB01D1
:100F9000BA010C9452080895FB01BA01A901DC01C1
:100FA000D296FC93EE93D19726E0CF010C94880A59
:100FB00008951F920F920FB60F9211242F933F9313
:100FC0008F939F93AF93BF938091CA019091CB0170
:100FD000A091CC01B091CD013091C90123E0230F44
:100FE0002D3720F40196A11DB11D05C026E8230F61
:100FF0000296A11DB11D2093C9018093CA0190934F
:10100000CB01A093CC01B093CD018091CE01909102
:10101000CF01A091D001B091D1010196A11DB11DC8
:101020008093CE019093CF01A093D001B093D101D2
:10103000BF91AF919F918F913F912F910F900FBED4
:101040000F901F9018952FB7F8946091CA01709176
:10105000CB018091CC019091CD012FBF08953FB776
:10106000F8948091CE019091CF01A091D001B091E0
:10107000D10126B5A89B05C02F3F19F00196A11DEF
:10108000B11D3FBF6627782F892F9A2F620F711DE0
:10109000811D911D42E0660F771F881F991F4A9599
:1010A000D1F708958F929F92AF92BF92CF92DF9225
:1010B000EF92FF926B017C010E942F084B015C01B3
:1010C000C114D104E104F104F1F00E94B00C0E94BB
:1010D0002F08681979098A099B09683E73408105C0
:1010E000910570F321E0C21AD108E108F10888EEF9
:1010F000880E83E0981EA11CB11CC114D104E10428
:10110000F10429F7DDCFFF90EF90DF90CF90BF90F3
:10111000AF909F908F900895789484B5826084BD3D
:1011200084B5816084BD85B5826085BD85B58160EB
:1011300085BDEEE6F0E0808181608083E1E8F0E04B
:101140001082808182608083808181608083E0E87A
:10115000F0E0808181608083E1EBF0E08081846059
:101160008083E0EBF0E0808181608083EAE7F0E05B
:1011700080818460808380818260808380818160BF
:1011800080838081806880831092C10008958E30B2
:1011900008F08E50877020910C0190E4299F9001F7
:1011A0001124822B80937C0080917A00806480934C
:1011B0007A0080917A0086FDFCCF809178002091A2
:1011C000790090E0922B0895833081F028F48130EB
:1011D00099F08230A1F008958730A9F08830B9F0F5
:1011E0008430D1F4809180008F7D03C08091800095
:1011F0008F7780938000089584B58F7702C084B57F
:101200008F7D84BD08958091B0008F7703C0809159
:10121000B0008F7D8093B0000895CF93DF9390E06E
:10122000FC01E458FF4F2491FC01E057FF4F8491EB
:10123000882349F190E0880F991FFC01E854FF4F83
:10124000A591B49182559F4FFC01C591D4919FB750
:10125000611108C0F8948C91209582238C93888129
:1012600082230AC0623051F4F8948C91322F309569
:1012700083238C938881822B888304C0F8948C917B
:10128000822B8C939FBFDF91CF9108950F931F9373
:10129000CF93DF931F92CDB7DEB7282F30E0F9014F
:1012A000E859FF4F8491F901E458FF4F1491F90177
:1012B000E057FF4F04910023C9F0882321F0698390
:1012C0000E94E4086981E02FF0E0EE0FFF1FE25575
:1012D000FF4FA591B4919FB7F8948C91611103C011
:1012E0001095812301C0812B8C939FBF0F90DF91BC
:1012F000CF911F910F910895CF93DF93282F30E066
:10130000F901E859FF4F8491F901E458FF4FD49156
:10131000F901E057FF4FC491CC2391F081110E9455
:10132000E408EC2FF0E0EE0FFF1FEC55FF4FA59106
:10133000B4912C912D2381E090E021F480E002C053
:1013400080E090E0DF91CF910895FC01818D228DA6
:1013500090E0805C9F4F821B91098F7399270895BD
:10136000FC01918D828D981731F0828DE80FF11D6F
:10137000858D90E008958FEF9FEF0895FC01918D8A
:10138000828D981761F0828DDF01A80FB11D5D96E7
:101390008C91928D9F5F9F73928F90E008958FEF55
:1013A0009FEF089582E49BE0892B49F080E090E074
:1013B000892B29F00E94420B81110C9400000895A2
:1013C000FC01848DDF01A80FB11DA35ABF4F2C91E2
:1013D000848D90E001968F739927848FA689B789B1
:1013E0002C93A089B1898C9180648C93938D848D8A
:1013F000981306C00288F389E02D80818F7D808359
:101400000895CF93DF93EC01888D8823C9F0EA8992
:10141000FB89808185FD05C0A889B9898C9186FDED
:101420000FC00FB607FCF5CF808185FFF2CFA889EA
:10143000B9898C9185FFEDCFCE010E94E009E7CFFD
:10144000DF91CF910895CF92DF92FF920F931F9378
:10145000CF93DF931F92CDB7DEB76C0181E0D60149
:1014600058968C9358975B969C915B975C968C9161
:101470005C97981307C05096ED91FC91519780812D
:1014800085FD2EC0F601038D10E00F5F1F4F0F7317
:101490001127F02EF601848DF81211C00FB607FC4B
:1014A000F9CFD6015096ED91FC915197808185FF3F
:1014B000F1CFC60169830E94E0096981EBCF838D7A
:1014C000E80FF11DE35AFF4F6083D6015B960C9342
:1014D0005B975296ED91FC915397808180620CC08E
:1014E000D6015696ED91FC91579760835096ED91F9
:1014F000FC91519780818064808381E090E00F901F
:10150000DF91CF911F910F91FF90DF90CF900895C1
:10151000BF92CF92DF92EF92FF92CF93DF93EC01D5
:101520006A017B01B22EE889F98982E08083411546
:1015300081EE580761057105A1F060E079E08DE367
:1015400090E0A70196010E94E70D21503109410961
:1015500051095695479537952795211580E138070C
:1015600098F0E889F989108260E874E88EE190E0EB
:10157000A70196010E94E70D215031094109510947
:101580005695479537952795EC85FD853083EE85F3
:10159000FF852083188EEC89FD89B082EA89FB895A
:1015A000808180618083EA89FB8980818860808373
:1015B000EA89FB89808180688083EA89FB89808150
:1015C0008F7D8083DF91CF91FF90EF90DF90CF9060
:1015D000BF9008951F920F920FB60F9211242F9370
:1015E0008F939F93EF93FF93E091E201F091E301DA
:1015F0008081E091E801F091E90182FD12C09081C3
:101600008091EB018F5F8F732091EC01821751F075
:10161000E091EB01F0E0EE52FE4F958F8093EB01ED
:1016200001C08081FF91EF919F918F912F910F9039
:101630000FBE0F901F9018951F920F920FB60F922A
:1016400011242F933F934F935F936F937F938F93C7
:101650009F93AF93BF93EF93FF9382ED91E00E942E
:10166000E009FF91EF91BF91AF919F918F917F9191
:101670006F915F914F913F912F910F900FBE0F90FF
:101680001F90189582ED91E00E94A50921E0892B19
:1016900009F420E0822F08951092D5011092D40110
:1016A00088EE93E0A0E0B0E08093D6019093D7015C
:1016B000A093D801B093D90186E391E09093D30130
:1016C0008093D20185EC90E09093DF018093DE015E
:1016D00084EC90E09093E1018093E00180EC90E055
:1016E0009093E3018093E20181EC90E09093E50117
:1016F0008093E40182EC90E09093E7018093E6010F
:1017000086EC90E09093E9018093E8011092EB0160
:101710001092EC011092ED011092EE0108950895DF
:101720000E948C080E948F0B0E94C601C2EDD9E076
:101730000E94A9032097E1F30E94D209F9CFCF922A
:10174000DF92EF92FF920F931F93CF93DF937C0171
:101750006A01EB0100E010E00C151D0571F06991C4
:10176000D701ED91FC910190F081E02DC701099521
:10177000892B19F00F5F1F4FEFCFC801DF91CF9179
:101780001F910F91FF90EF90DF90CF90089561151A
:10179000710581F0DB010D900020E9F7AD014150AA
:1017A0005109461B570BDC01ED91FC910280F3813E
:1017B000E02D099480E090E008950C94C70BDC01C3
:1017C000ED91FC910190F081E02D09946FE271E0C0
:1017D0000C94C70B8F929F92AF92BF92DF92EF92C1
:1017E000FF920F931F93CF93DF93CDB7DEB7A197EF
:1017F0000FB6F894DEBF0FBECDBF7C01F42FD52EFF
:10180000CB0119A2223008F42AE08E010F5D1F4F90
:10181000822E912CA12CB12C6F2F7D2DA50194012E
:101820000E94E70DF22FD32ECA01015011096A3030
:1018300014F4E0E301C0E7E3E60FD801EC93232BB7
:10184000242B252B49F7B801C7010E94C70BA1968D
:101850000FB6F894DEBF0FBECDBFDF91CF911F91C1
:101860000F91FF90EF90DF90BF90AF909F908F907F
:101870000895CF92DF92EF92FF920F931F93CF9331
:10188000DF93EC016A017B012115310579F4E881D0
:10189000F9810190F081E02D642FDF91CF911F91AC
:1018A0000F91FF90EF90DF90CF9009942A3031058F
:1018B000E9F477FF1AC06DE20E94DF0B8C01442728
:1018C0005527BA014C195D096E097F092AE0CE013E
:1018D0000E94EA0B800F911FDF91CF911F910F9112
:1018E000FF90EF90DF90CF9008952AE0B701A60116
:1018F000CE01DF91CF911F910F91FF90EF90DF907C
:10190000CF900C94EA0B9A01AB01662757FD6095C6
:10191000762F0C94390C0F931F93CF93DF93EC0128
:101920009A01AB01662757FD6095762F0E94390C0E
:101930008C01CE010E94E60B800F911FDF91CF91A9
:101940001F910F9108952115310541F4DC01ED91AE
:10195000FC910190F081E02D642F09940C94EA0B26
:10196000089504D06894B111B5C0089598D088F056
:101970009F5790F0B92F9927B751A0F0D1F0660F7B
:10198000771F881F991F1AF0BA95C9F712C0B13096
:1019900081F09FD0B1E008959CC0672F782F8827F1
:1019A000B85F39F0B93FCCF3869577956795B395D5
:1019B000D9F73EF490958095709561957F4F8F4F44
:1019C0009F4F0895E89409C097FB3EF49095809549
:1019D000709561957F4F8F4F9F4F9923A9F0F92FF5
:1019E00096E9BB279395F695879577956795B79573
:1019F000F111F8CFFAF4BB0F11F460FF1BC06F5F59
:101A00007F4F8F4F9F4F16C0882311F096E911C06A
:101A1000772321F09EE8872F762F05C0662371F08B
:101A200096E8862F70E060E02AF09A95660F771F9F
:101A3000881FDAF7880F9695879597F9089597F993
:101A40009F6780E870E060E008959FEF80EC089564
:101A500000240A941616170618060906089500248D
:101A60000A9412161306140605060895092E039407
:101A7000000C11F4882352F0BB0F40F4BF2B11F47B
:101A800060FF04C06F5F7F4F8F4F9F4F089557FDDA
:101A90009058440F551F59F05F3F71F04795880FDC
:101AA00097FB991F61F09F3F79F087950895121673
:101AB00013061406551FF2CF4695F1DF08C016161F
:101AC00017061806991FF1CF8695710561050894D0
:101AD0000895E894BB2766277727CB0197F90895E7
:101AE0000BD0C4CFB5DF28F0BADF18F0952309F08A
:101AF000A6CFABCF1124EECFCADFA0F3959FD1F3D1
:101B0000950F50E0551F629FF001729FBB27F00DAB
:101B1000B11D639FAA27F00DB11DAA1F649F662700
:101B2000B00DA11D661F829F2227B00DA11D621F4F
:101B3000739FB00DA11D621F839FA00D611D221F09
:101B4000749F3327A00D611D231F849F600D211DED
:101B5000822F762F6A2F11249F5750408AF0E1F090
:101B600088234AF0EE0FFF1FBB1F661F771F881FD9
:101B700091505040A9F79E3F510570F060CFAACF19
:101B80005F3FECF3983EDCF3869577956795B795C4
:101B9000F795E7959F5FC1F7FE2B880F911D9695EE
:101BA000879597F90895AA1BBB1B51E107C0AA1F8F
:101BB000BB1FA617B70710F0A61BB70B881F991FEE
:101BC0005A95A9F780959095BC01CD010895A1E2A1
:101BD0001A2EAA1BBB1BFD010DC0AA1FBB1FEE1FA7
:101BE000FF1FA217B307E407F50720F0A21BB30BF2
:101BF000E40BF50B661F771F881F991F1A9469F76E
:101C000060957095809590959B01AC01BD01CF01C9
:101C10000895052E97FB1EF400940E94200E57FD98
:101C200007D00E94E70D07FC03D04EF40C94200E61
:101C300050954095309521953F4F4F4F5F4F0895F8
:101C400090958095709561957F4F8F4F9F4F089528
:101C5000EE0FFF1F0590F491E02D0994CF93DF93D1
:101C60008230910510F482E090E0E0917102F091F1
:101C7000720220E030E0A0E0B0E0309739F140811E
:101C8000518148175907B8F04817590771F48281F4
:101C90009381109729F013969C938E9312972CC0E2
:101CA000909372028093710227C02115310531F0A3
:101CB0004217530718F0A901DB0101C0EF019A0197
:101CC000BD01DF010280F381E02DD7CF2115310561
:101CD000F9F0281B390B2430310580F48A819B816F
:101CE0006115710521F0FB019383828304C09093F9
:101CF000720280937102FE01329644C0FE01E20F2F
:101D0000F31F8193919322503109398328833AC07C
:101D100020916F0230917002232B41F42091020137
:101D2000309103013093700220936F0220910001E3
:101D3000309101012115310541F42DB73EB7409195
:101D4000040150910501241B350BE0916F02F091C5
:101D50007002E217F307A0F42E1B3F0B2817390778
:101D600078F0AC014E5F5F4F2417350748F04E0FF7
:101D70005F1F5093700240936F028193919302C052
:101D8000E0E0F0E0CF01DF91CF910895CF93DF93B2
:101D9000009709F487C0FC01329713821282C09128
:101DA0007102D0917202209781F420813181280F35
:101DB000391F80916F02909170028217930779F515
:101DC000F0937002E0936F026DC0DE0120E030E01E
:101DD000AE17BF0750F412964D915C9113979D0179
:101DE0004115510509F1DA01F3CFB383A283408194
:101DF0005181840F951F8A179B0771F48D919C91D7
:101E00001197840F951F02969183808312968D916E
:101E10009C911397938382832115310529F4F093C4
:101E20007202E09371023EC0D9011396FC93EE93C7
:101E300012974D915D91A40FB51FEA17FB0779F436
:101E400080819181840F951F0296D90111969C93F0
:101E50008E938281938113969C938E931297E0E0E8
:101E6000F0E08A819B81009719F0FE01EC01F9CF27
:101E7000CE01029628813981820F931F20916F0233
:101E8000309170022817390769F4309729F41092BD
:101E900072021092710202C013821282D0937002F9
:101EA000C0936F02DF91CF910895DC0101C06D9363
:101EB00041505040E0F7089510E0C6ECD0E004C077
:101EC000FE010E942A0E2296C83CD107C9F7F89459
:021ED000FFCF42
:101ED200000073028000FF03FF03C20101564D445C
:101EE20050565F317C305F564D4450560D0A0056B5
:101EF2004D4450455F31007C005F564D4450450DC6
:101F02000A0000000000230A9F0BA509BE09B009C0
:101F1200010A6E616E00696E66006F7666002E00C1
:00000001FF
